16:18:22.390478 IP (tos 0xb8, ttl 175, id 11818, offset 0, flags [DF], proto TCP (6), length 232)
    zoolab.cs.nctu.edu.tw.10001 > 172.28.96.148.34130: Flags [P.], cksum 0x908e (correct), seq 1664837967:1664838147, ack 4119350629, win 510, options [nop,nop,TS val 4249370084 ecr 3367777248], length 180
	0x0000:  45b8 00e8 2e2a 4000 af06 2d36 8c71 d5d5  E....*@...-6.q..
	0x0010:  ac1c 6094 2711 8552 633b 694f f588 4d65  ..`.'..Rc;iO..Me
	0x0020:  8018 01fe 908e 0000 0101 080a fd48 3de4  .............H=.
	0x0030:  c8bc 33e0 597a 4669 4e32 5269 4f43 4179  ..3.YzFiN2RiOCAy
	0x0040:  4d44 4979 4c7a 4135 4c7a 4932 4944 4134  MDIyLzA5LzI2IDA4
	0x0050:  4f6a 4534 4f6a 4979 4945 5a4d 5155 6437  OjE4OjIyIEZMQUd7
	0x0060:  4d54 5932 4e44 4534 4d44 4d77 4d69 3430  MTY2NDE4MDMwMi40
	0x0070:  4f44 6732 4e44 6466 6332 6c74 5547 777a  ODg2NDdfc2ltUGwz
	0x0080:  5831 4241 5930 737a 6446 3968 626d 464d  X1BAY0szdF9hbmFM
	0x0090:  5754 5670 4e53 4639 4944 4531 4e54 4177  WTVpNSF9IDE1NTAw
	0x00a0:  4e6a 6b79 4d44 5134 4f44 6b33 4e44 6732  NjkyMDQ4ODk3NDg2
	0x00b0:  4e54 6735 4e6a 4534 4e44 6778 4d6a 5531  NTg5NjE4NDgxMjU1
	0x00c0:  4f44 5534 4e6a 5535 4e7a 5178 4e7a 4931  ODU4NjU5NzQxNzI1
	0x00d0:  4e7a 4532 4e44 4d7a 4d54 5135 4d7a 4133  NzE2NDMzMTQ5MzA3
	0x00e0:  4f54 5978 4e41 3d3d                      OTYxNA==
