11:35:38.551200 IP (tos 0x0, ttl 176, id 19545, offset 0, flags [DF], proto TCP (6), length 228)
    zoolab.cs.nctu.edu.tw.10001 > 10.2.1.238.50163: Flags [P.], cksum 0x9845 (correct), seq 3084584467:3084584643, ack 1746690474, win 510, options [nop,nop,TS val 2237939110 ecr 2265451899], length 176
	0x0000:  4500 00e4 4c59 4000 b006 0f84 8c71 d5d5  E...LY@......q..
	0x0010:  0a02 01ee 2711 c3f3 b7db 0613 681c 61aa  ....'.......h.a.
	0x0020:  8018 01fe 9845 0000 0101 080a 8564 3da6  .....E.......d=.
	0x0030:  8708 0d7b 4e6d 517a 4d57 526c 4f53 4179  ...{NmQzMWRlOSAy
	0x0040:  4d44 4979 4c7a 4135 4c7a 4930 4944 417a  MDIyLzA5LzI0IDAz
	0x0050:  4f6a 4d31 4f6a 4d33 4945 5a4d 5155 6437  OjM1OjM3IEZMQUd7
	0x0060:  4d54 5932 4d7a 6b35 4d44 557a 4e79 3434  MTY2Mzk5MDUzNy44
	0x0070:  4e7a 4134 4e6a 4e66 6332 6c74 5547 777a  NzA4NjNfc2ltUGwz
	0x0080:  5831 4241 5930 737a 6446 3968 626d 464d  X1BAY0szdF9hbmFM
	0x0090:  5754 5670 4e53 4639 4944 4d30 4e6a 4133  WTVpNSF9IDM0NjA3
	0x00a0:  4d6a 4578 4e6a 6331 4d7a 4978 4d54 6b30  MjExNjc1MzIxMTk0
	0x00b0:  4e6a 6331 4e7a 6b34 4d44 4578 4d7a 417a  Njc1Nzk4MDExMzAz
	0x00c0:  4e44 4d79 4f54 6333 4d54 5179 4e44 5134  NDMyOTc3MTQyNDQ4
	0x00d0:  4e54 4533 4f54 4578 4e6a 4579 4e44 5177  NTE3OTExNjEyNDQw
	0x00e0:  4d7a 413d                                MzA=
